:020000040800F2
:10800000005000205181000805E8000807E800083A
:1080100009E800080BE800080DE80008000000006F
:1080200000000000000000000000000091E70008D0
:108030000FE8000800000000C1E7000811E8000890
:1080400099810008998100089981000899810008A8
:108050009981000899810008998100089981000898
:1080600099810008998100089981000845E8000875
:108070009981000899810008998100089981000878
:10808000998100089981000871E900089981000828
:1080900099810008998100089981000829EB00085E
:1080A0009981000899810008998100089981000848
:1080B000998100089981000851EA00089981000817
:1080C0009981000899810008998100089981000828
:1080D0009981000899810008998100089981000818
:1080E000998100089981000899810008000000002A
:1080F0000000000000000000000000000000000080
:0C81000000000000000000005FF8E0F14B
:1081100010B5054C237833B9044B13B10448AFF3C1
:1081200000800123237010BD180200200000000011
:1081300000FC000808B5034B1BB103490348AFF32B
:10814000008008BD000000001C02002000FC0008A8
:10815000002103E00B4B5B58435004310A480B4BA2
:1081600042189A42F6D30A4A02E00023136004320E
:10817000084B9A42F9D306F047FD07F0DDFC06F004
:10818000B9FDFEE774210108000000201402002060
:1081900018020020382E0020FEE700000648006884
:1081A000006880F3088862B661B6BFF34F8FBFF3F3
:1081B0006F8F00DF00BF000008ED00E04FF05003BC
:1081C00083F31188BFF36F8FBFF34F8FFEE700007B
:1081D000002307B501930A4B1B68013301D0FFF759
:1081E000EDFF4FF0500383F31188BFF36F8FBFF3A0
:1081F0004F8F019B002BFCD003B05DF804FB00BF48
:108200001002002008B5EFF305830F2B07D90E4AA3
:108210009B5C0E4A12789A4201D9FFF7CFFF4FF0CC
:10822000E0230B4AD3F80C3D126803F4E063934259
:1082300008D94FF0500383F31188BFF36F8FBFF35A
:108240004F8FFEE708BD00BFF0E300E05C2900208F
:1082500060290020054A08B513680BB9FFF7AEFF87
:10826000013B13600BB983F3118808BD1002002095
:1082700008B54FF0500383F31188BFF36F8FBFF33E
:108280004F8F074A13680133012B136007D14FF05A
:10829000E023D3F8043DDBB20BB1FFF78FFF08BD3D
:1082A000100200200023084910B501EB8001184698
:1082B00051F823400433A2B202EB1442402B104485
:1082C000F6D1C0F38F0010BD34020020034A013004
:1082D000116813685B1A8342FBD37047642900203E
:1082E000002337B5026801939368DB0702D50020AD
:1082F00003B030BD9368124943F001039360114B02
:108300001B68B3FBF1F30193019BABB90E4C2568DD
:10831000936813F00103EAD12168491B0229F7D9B8
:10832000826A80F8243042F010028262C26A42F00F
:108330000102C2620120DBE7019B013BE3E700BFD2
:1083400040420F005000002064290020036810B54F
:108350009A68D10701D4002010BD9A680A4922F01A
:1083600001029A600C689A68D207F4D50A68121B59
:10837000022AF8D9836A43F010038362C36A43F088
:108380000103C3620120E7E7642900207047436AC4
:108390009A6A42F040029A62DA6A42F00402DA62B1
:1083A00070470000002337B5019390F8243004464D
:1083B000012B5FD0012380F82430FFF7C7FF05466B
:1083C000002839D1A36A2C4823F4885323F00203F0
:1083D00043F00203A362294B1A68294B59685B6872
:1083E000C1F3C221415CC3F38133013322FA01F1AD
:1083F0005B00B1FBF3F3B2FBF3F252000192019B7D
:10840000F3B92046FFF76CFF23689A6842F0080230
:108410009A601C4A10689968090715D4996841F058
:10842000040199601068996849071ED4A36A23F073
:10843000030343F00103A362002384F8243011E016
:10844000019B013B0193DAE71168091A0A29E2D975
:10845000A36A012523F0120343F01003A362002353
:1084600084F82430284603B030BD1168091A0A295F
:10847000D9D9EDE70225F5E77BFD00085000002083
:1084800000100240642900202DE9F74F0022164613
:10849000694F6A4BDFF8A8C1DFF8A8E10D6835FA2B
:1084A00006F402D103B0BDE8F08F4FF0010808FADE
:1084B00006F805EA080438EA050540F08A804D68A8
:1084C000032D00F0AE8014D8012D00F09F80022D06
:1084D00000F0A180A5B98A68002A00F0A480012AD2
:1084E00008BFC0F810804FF0080218BFC0F8148011
:1084F00006E0122D00F092806DD8112D00F08880DA
:10850000FF2C98BF82464FF00F0988BF00F1040A84
:108510004FEA8605DAF8008088BF203D09FA05FB9E
:1085200028EA0B0802FA05F548EA0505CAF80050E2
:10853000D1F804A01AF0805F4BD0BD6926F0030883
:1085400045F00105BD61BD6908F1804805F00105F0
:10855000019508F5803806F0030B019D4FEA8B0B5F
:10856000D8F8085009FA0BF925EA0909364DA8424E
:108570005BD005F58065A84259D005F58065A84215
:1085800057D005F58065A8420CBF0325042505FAE0
:108590000BF545EA0905C8F808501D681AF4803F34
:1085A00014BF2543A5431D605D681AF4003F14BF46
:1085B0002543A5435D609D681AF4801F14BF2543C1
:1085C000A5439D60DD681AF4001F14BF2543A54331
:1085D000DD60013662E7DFF874904D453FF47BAF14
:1085E0000FD8A9F580194D453FF475AF09F57029ED
:1085F0004D453FF470AFA9F580194D453FF46BAF81
:108600007EE765453FF467AF7545F7E7CA6877E7EA
:10861000CA68043274E7CA68083271E7CA680C3263
:108620006EE700226CE704226AE70025AFE7012528
:10863000ADE70225ABE700BF001002400004014097
:10864000000031100000321000080140000022102C
:108650001A4A036890420AD0B0F1804F07D0A2F5C1
:108660009432904203D002F58062904215D14A685C
:1086700023F070031343114A90420AD0B0F1804FA7
:1086800007D0A2F59432904203D002F58062904266
:1086900003D1CA6823F4407313434A6923F080036B
:1086A000134303608B68C3620B688362034B984279
:1086B00004BF0B690363012343617047002C014031
:1086C00043689A684B608A609A6851609960036851
:1086D000086101330360704730B50C68631C0AD130
:1086E00003695A684A6091608B6059600368086149
:1086F0000133036030BD00F108021346526815686B
:10870000A542FAD9EDE70369D0E901128A60516008
:108710005968814208BF5A60002202611A68013A12
:108720001A60186870470000024A1368013313602A
:10873000704700BF6C290020C36870B5DC6844B97D
:108740004FF0500383F31188BFF36F8FBFF34F8F48
:10875000FEE704F118063046FFF7D5FF104BE56A37
:108760001B68D3B904342046FFF7CDFF01230D4A1F
:1087700014201168AB400B43214613600A4B00FBE9
:108780000530FFF79DFF094B1B68DB6AAB423BBF1F
:108790000120074B0020186070BD31460548F0E706
:1087A0006C29002074290020402800203428002053
:1087B000342E0020182E00202DE9F04104464FF001
:1087C0000108FFF755FD90F845501B4F6DB200F1C1
:1087D0002406002D17DCFF234FF0010884F84530F4
:1087E000FFF738FDFFF744FD94F84450124F6DB287
:1087F00004F11006002D12DCFF2384F84430BDE89C
:10880000F041FFF727BD636A002BE4D03046FFF745
:1088100093FF08B1C7F80080013D6DB2D9E7236925
:10882000002BE9D03046FFF787FF08B1C7F800807A
:10883000013D6DB2DEE700BF342E0020F8B50F4DCC
:108840000F4EFFF715FD2C680768336842689F429A
:1088500007D0944205D3002301200B60FFF7FAFCF8
:10886000F8BD0B68A71A9F42F5D21B1B13440B607F
:10887000336803602B6843600020EFE7302E002050
:10888000102E002008B9064B1868026B0020135CFC
:10889000A52B02D0C0F38F0070470130F7E700BF6F
:1088A00034280020064A13681968064B19B94FF09E
:1088B000FF321A6070471268D2681268F9E700BF89
:1088C000382800200C2E00203D4B2DE9F74F1B6867
:1088D000002B6ED13B4B1D6801351D60BDB93A4B75
:1088E0001A68126842B14FF0500383F31188BFF346
:1088F0006F8FBFF34F8FFEE7344A19681068186016
:108900001160334A136801331360FFF7CBFF314E18
:1089100000243368DFF8C0809D4212D21422D8F8B8
:108920000030DB6A53432D4AD358022B2C4B28BF0F
:1089300001241B68002B18BF0124204603B0BDE8AA
:10894000F08FDFF884A0DFF89C90DAF800301B6825
:108950001BB94FF0FF333360E0E7DAF80030DB6833
:10896000DF687A68954201D23260D7E707F1040BDD
:108970005846FFF7C8FEBA6A1AB107F11800FFF7A8
:10898000C2FE0122FB6AD9F800009A40024314207B
:10899000C9F80020114A594600FB03200193FFF754
:1089A0008FFED8F80020019BD26A934228BF012491
:1089B000CBE70D4A0024136801331360BDE700BF05
:1089C0006C290020302E0020382800203C28002070
:1089D000102E00200C2E00203428002040280020DB
:1089E000342E002074290020142E002032492DE955
:1089F000F0470B6843B94FF0500383F31188BFF37E
:108A00006F8FBFF34F8FFEE7FFF732FC0B68013B20
:108A10000B600C6824B10020FFF71CFCBDE8F08758
:108A2000264B1B68002BF6D0254E264FDFF898907A
:108A300020E0F3684FF00108DC6804F1040A04F157
:108A40001800FFF760FE5046FFF75DFE1420E56A50
:108A50003A6808FA05F31343514600FB05903B6062
:108A6000FFF72EFE194B1B68DB6A9D4202D3184BA1
:108A7000C3F800803368002BDBD10CB1FFF712FF85
:108A8000144D2C6844B10127114EFFF71DFF00B1B2
:108A90003760013CF9D12C600D4B1B68002BBAD01C
:108AA0004FF0E0234FF08052C3F8042DBFF34F8FF7
:108AB000BFF36F8F0120AFE76C29002068290020E9
:108AC000182E00207429002040280020342800207F
:108AD000342E0020142E0020054B1B6833B1054BAB
:108AE0001868B0FA80F040094000704701207047D4
:108AF0002C2E00206C29002000231A46074911F86B
:108B0000010B03FB00220133DA2BF8D1044B186868
:108B10001A60801A18BF0120704700BFDD200020B6
:108B2000C8210020002070477047142370B5044608
:108B3000002503FB0106B44201D1284670BDA3689D
:108B4000002BFAD0E3681BB90135ADB21434F2E75B
:108B500098470028F8D1F9E70B4B588A80B288B1C2
:108B600042F21073094A116899420AD9084B002051
:108B70001B685B1AC72B05D8064B106018600120D4
:108B800070470020704700BFE42800208C2600209A
:108B9000302E002064240020084B33F8302003EBF3
:108BA000C00391425B8803D399420A4628BF1A4604
:108BB000034B03EB40039A80704700BF5400002032
:108BC000E428002010B50E4B33F8304003EBC0030F
:108BD00059889A880B4B03EB400083889BB28B42E9
:108BE00001D1848010BD83888C1A9BB2A342B7BF89
:108BF00083888180D21892B2B8BF8280F2E700BF2A
:108C000054000020E4280020164B03EBC003998891
:108C100098B9154B5B8C9BB2002B0CBF4FF4AF7314
:108C20004FF42573104A5B1A02EB4002908880B221
:108C30009842D4BF0020012070471628E9D00128AF
:108C400009D1094B5B8C9BB2002B14BF4FF41173FD
:108C50004FF49673E6E71F2801D05B88E2E7012016
:108C6000704700BF54000020E428002008B5114BD5
:108C7000198E5B8C89B29BB28BB169B1143189B208
:108C8000B1F5257F28BF00211620FFF785FFBDE83D
:108C900008401620FFF780BF4FF49671F4E731B11A
:108CA0000A3189B2B1F5AF7F88BF0021EFE7962185
:108CB000EDE700BFE42800200B4A02EB400399884F
:108CC000538C89B29BB23BB10A3189B2B1F5257F91
:108CD00088BF3221FFF760BF053189B2B1F5AF7FA0
:108CE00088BF0A21F6E700BFE42800202820FFF70C
:108CF000E3BF2A20FFF7E0BF2C20FFF7DDBF2E20C7
:108D0000FFF7DABF3020FFF7D7BF3220FFF7D4BF1D
:108D1000034BB3F8520080B2003818BF01207047EF
:108D2000E4280020044BB3F8520080B2012894BF1D
:108D300000200120704700BFE4280020044BB3F856
:108D4000520080B2022894BF00200120704700BF6B
:108D5000E4280020044BB3F8520080B2032894BFEB
:108D600000200120704700BFE4280020044BB3F826
:108D7000520080B2042894BF00200120704700BF39
:108D8000E4280020034B588A80B2003818BF012025
:108D9000704700BFE42800200F4A02EB40039B8885
:108DA000528C9BB292B27AB103EBC3010523A0317E
:108DB000B1FBF3F10A2389B2B1FBF3F101EB8101BD
:108DC000490089B2FFF7E8BE0922203B03EB830389
:108DD00093FBF2F1EEE700BFE428002008B50F2076
:108DE000FFF7F0FE1620FFF7D7FF0020FFF7D4FFB4
:108DF0002820FFF7D1FF2A20FFF7CEFF2C20FFF716
:108E0000CBFF2E20FFF7C8FF3020FFF7C5FFBDE8DE
:108E100008403220FFF7C0BF034BD88A80B2003829
:108E200018BF0120704700BFE4280020034B188DB5
:108E300080B2003818BF0120704700BFE42800202E
:108E400010B5224A224B9B68906883F48063C0432C
:108E50004000C3F3802300F0020018431FBF1D4BE6
:108E60001A681D4B1A601D4A1378834212D180B1D3
:108E7000184B1B4A1B6812689B1AB3F5C87F20D396
:108E80000122184B90421A701DD002280CBF0820F6
:108E9000202010BD38B10343002013700D4B1A6819
:108EA0000F4B1A60F5E70F490C7844B9012B02D03B
:108EB000022B18BF1023107008701846EEE7034607
:108EC000F9E70020E5E70420E3E700BF000C0140DC
:108ED00000080140302E00205C26002046230020A0
:108EE00048230020452300204022124B00211A6114
:108EF00080221A61104A1088884211DC4FF4000168
:108F000019610023118899420DDC4FF4800309494F
:108F10000B6100231088984208DC80230B617047A6
:108F200000BF0131E7E700BF0133EBE700BF0133CA
:108F3000F0E700BF000C0140000000204FF40003E8
:108F40000E490F4A0B610023108898420DDC402324
:108F50000B610023118899420ADC8021074B1961BB
:108F600000231188994206DC704700BF0133EBE70C
:108F700000BF0133EEE700BF0133F2E7000C014010
:108F80000000002080230D490D4A0B61002310884A
:108F900098420DDC40230B610023118899420ADCC2
:108FA0004FF48002054B98681A61C0F3C0107047F7
:108FB00000BF0133EBE700BF0133EEE7000C0140D7
:108FC000000000200E4B88B180221A6100230D4959
:108FD0000A889A420DDC4023094A1361002308885D
:108FE000984209DC4FF48003136170474FF400028C
:108FF000EBE700BF0133EBE700BF0133EFE700BF52
:10900000000C01400000002038B50446082504F09B
:109010008000013DFFF7D6FF640015F0FF05E4B2C4
:10902000F5D18022034B1A61FFF7ACFFB0FA80F054
:10903000400938BD000C01400822144B14491A6144
:109040004FF40042A3F580631A6100220888904221
:1090500012DC4FF000421A610022088890420EDCB8
:109060004FF40020094A106100220888904209DC70
:109070004FF400421A61704700BF0132E6E700BFBB
:109080000132EAE700BF0132EFE700BF000C014008
:10909000000000204FF000430F49104A0B610023ED
:1090A000108898420EDC08200D4B186100231088B0
:1090B00098420ADC4FF400430B6100231188994267
:1090C00006DC704700BF0133EAE700BF0133EEE77B
:1090D00000BF0133F2E700BF00080140000000209C
:1090E000000C01404FF400430D4A0E491361002368
:1090F000088898420EDC08200B4B18610023088872
:1091000098420ADC90684FF40022074BC0F3C0304D
:109110001A61704700BF0133EAE700BF0133EEE791
:109120000008014000000020000C01400E4B90B1EF
:109130004FF400421A6100230C490A889A420DDC60
:1091400008230B4A136100230888984209DC4FF476
:109150000023136170474FF00042EBE700BF01337B
:10916000EBE700BF0133EFE70008014000000020FB
:10917000000C014038B50446082504F08000013D8C
:10918000FFF7D4FF640015F0FF05E4B2F5D14FF40A
:109190000042044B1A61FFF7A5FFB0FA80F04009C6
:1091A00038BD00BF00080140F0B55442A0421E4641
:1091B000059D134619DD602817DC002800EB020727
:1091C000B6BF44420024E4B2602FC4BFC0F16002C5
:1091D000D2B291B9134F21183F6805EB040C0F442C
:1091E00021468A4202D80F2E09D8F0BD1CF801EBA7
:1091F000013107F801EBC9B2F3E70829F3D1102ECA
:1092000018BF002307492344496820442B440144E4
:10921000A242EAD913F8010B013401F8010BE4B2C0
:10922000F6E700BFB82100200229F7B504461CD19B
:1092300010221D4B1D491A700C221D4B1A701C4B1D
:109240001C4E1D78184BB6F900701B783846DA08AA
:109250006A4304FB0211009117492A4691F9001054
:10926000FFF7A2FFE819308009E0012809D1124B6D
:10927000B3F900201AB90F490A8008221A8003B0F6
:10928000F0BDFCD9002915BF102008200C220622B1
:109290000A4B0B4908BF1946034B023C1870044B9C
:1092A000A4B21A70CBE700BF98230020FC14010879
:1092B00099230020A8220020AA220020C41101081E
:1092C000320A0108C0F111000221C0B2FFF7ACBFA1
:1092D000044BB3F8500080B2003818BF0120FFF7EC
:1092E000F1BF00BFE4280020034B988B80B2003808
:1092F00018BF0120FFF7E6BFE4280020034BD88EFB
:1093000080B2003818BF0120FFF7DCBFE42800203E
:10931000034B988A80B2003818BF0120FFF7D2BFF4
:10932000E4280020034BD88B80B2003818BF0120FE
:10933000FFF7C8BFE4280020034B188C80B2003828
:1093400018BF0120FFF7BEBFE4280020044BB3F88C
:109350004C0080B2003818BF0120FFF7B3BF00BF38
:10936000E428002070B503780446012B0E4615460C
:1093700001D11E4601342378A3B19DB1F02B09D948
:1093800062787AB1F03BC3EB03230F3A134498B2EF
:10939000023401E098B201343146013DFFF744FF49
:1093A000EDB2E8E770BD000007B5114B198B89B22B
:1093B000022915D0032917D001290AD00D4B00210D
:1093C000009310234E201A46FFF7EEFE03B05DF81F
:1093D00004FBFF22084803B05DF804EBFFF7C2BFAF
:1093E000FF2201210548F6E7FF2201210448F2E7A8
:1093F000E4280020E81B0108270A01082D0A0108BB
:10940000210A010807B50E4BD98C89B201290CD06D
:10941000022911D00B4B0021009310234E201A4635
:10942000FFF7C2FE03B05DF804FBFF22064803B05D
:109430005DF804EBFFF796BFFF2201210348F6E732
:10944000E4280020E81B01082F0A01082B0A010864
:10945000074B40F6ED219A8C40F6F12392B2002A98
:1094600008BF0B460348FF2201211844FFF77ABFCB
:10947000E42800203AFF000807B5114BD98A89B2C9
:1094800002290AD003290CD001290ED1FF220D4850
:1094900003B05DF804EBFFF765BFFF2201210A4826
:1094A000F6E7FF2201210948F2E7094B002100936A
:1094B00010234E201A46FFF777FE03B05DF804FB39
:1094C000E4280020270A0108290A01082B0A0108BC
:1094D000E81B0108002110B4064A04781180064AEE
:1094E000012C118004BF01302146FF2210BCFFF780
:1094F00039BF00BFA8220020AA22002037B50446A9
:10950000264B03F58F7003EB4403B3F81431184472
:10951000FFF7E0FF224AD38A9BB2022B20D0032B15
:1095200014BF4FF4FA704FF49670D18A1D4B89B274
:10953000C9B119681C4DA1421C4902D01C602B689E
:109540000B602B680968928A5B1A92B2B3FBF0F346
:1095500002B30322B3FBF2F202EB42029B1A0AE0CF
:109560004FF4C870E1E779211960D38A9BB2B3FA4E
:1095700083F35B095B006022544304EB43140C4B00
:1095800000212344009310234E201A46FFF70CFEBF
:1095900003B030BD022B28BF0223ECE71CFE0008FD
:1095A000E428002000020020302E00207823002034
:1095B0006D1C01080120FFF7A1BF0220FFF79EBF2D
:1095C0000320FFF79BBF0420FFF798BF0128014647
:1095D00010B40E4B09D0022812D1588C10BC80B2A6
:1095E000B0FA80F04009FFF71FBEFF225B8C084CE9
:1095F00008489BB2002B18BF204610BCFFF7B2BE34
:109600005B8CFF22044C05489BB2F3E7E428002062
:109610001EFC000820FC000822FC000848FC000892
:109620000120FFF7D3BF37B50C4611460022042CAA
:109630000092ADF804208DF8062032D90A22B0FB42
:10964000F2F502FB150002308DF80500B5FBF2F0D3
:1096500002FB105502358DF8045080B20A22B0FB8F
:10966000F2F502FB150202328DF80320A8B20A259A
:10967000B0FBF5F205FB120502358DF8025090B2F1
:109680000A25B0FBF5F205FB120502358DF80150F5
:1096900090B20BE01578022D17D102F8010B0133BF
:1096A00011E0DBD0032CE2D0012CE9D10A25B0FB7C
:1096B000F5F205FB120202328DF800202BB16A464A
:1096C00000231220013CA342E4DBFF226846FFF79F
:1096D00049FE03B030BD000007B50C4BB3F84400A1
:1096E00080B250B90A4B0146009310234E201A460F
:1096F000FFF75AFD03B05DF804FB012302211A466F
:1097000003B05DF804EBFFF78EBF00BFE428002034
:10971000E81B010807B50C4B198E89B249B1188EA8
:10972000012303211A4680B203B05DF804EBFFF772
:109730007ABF064B4E20009310231A46FFF734FDE4
:1097400003B05DF804FB00BFE4280020E81B01081B
:10975000034B0221588F012380B21A46FFF763BFE3
:10976000E4280020034B0221188F012380B21A46FF
:10977000FFF759BFE4280020044BB3F8520001233F
:1097800080B21A461946FFF74EBF00BFE4280020FA
:10979000044B0321B3F85400012380B21A46FFF7AB
:1097A00042BF00BFE4280020044B0321B3F8580057
:1097B000012380B21A46FFF736BF00BFE42800201D
:1097C000044B0321B3F85C00012380B21A46FFF773
:1097D0002ABF00BFE4280020044B0321B3F8600037
:1097E000012380B21A46FFF71EBF00BFE428002005
:1097F000044B0321B3F86400012380B21A46FFF73B
:1098000012BF00BFE4280020044B0321B3F8680016
:10981000012380B21A46FFF706BF00BFE4280020EC
:10982000044B0221B3F85600012380B21A46FFF719
:10983000FABE00BFE4280020044B0221B3F86C00FC
:10984000012380B21A46FFF7EEBE00BFE4280020D5
:10985000044B0321B3F85A00012380B21A46FFF7E4
:10986000E2BE00BFE4280020044B0321B3F85E00F1
:10987000012380B21A46FFF7D6BE00BFE4280020BD
:10988000044B0321B3F86200012380B21A46FFF7AC
:10989000CABE00BFE4280020044B0321B3F86600D1
:1098A000012380B21A46FFF7BEBE00BFE4280020A5
:1098B000044B0321B3F86A00012380B21A46FFF774
:1098C000B2BE00BFE428002007B50C4B598A89B20C
:1098D00049B10122588A1146002380B203B05DF8D5
:1098E00004EBFFF7A0BE064B4E20009310231A4650
:1098F000FFF75AFC03B05DF804FB00BFE42800202A
:10990000E81B010807B50E4B598B89B249B90D4BBD
:109910004E20009310231A46FFF746FC03B05DF873
:1099200004FB588B012302211A4680B2FFF77BFE0D
:10993000FF220121044803B05DF804EBFFF712BDDC
:10994000E4280020E81B010824FC000807B5154B9B
:10995000B3F84A1089B205290CD0062910D089B96C
:10996000114B009310231A464E20FFF71DFC03B045
:109970005DF804FB0D4B0093102300211A46F3E71A
:109980000B4BF8E7B3F84A00012380B21A46194698
:10999000FFF749FEFF220121064803B05DF804EB02
:1099A000FFF7E0BCE4280020E81B0108FCFD0008EC
:1099B0000C20010826FC000807B50E4B998E89B2D1
:1099C00049B90D4B4E20009310231A46FFF7ECFBCC
:1099D00003B05DF804FB988E012303211A4680B280
:1099E000FFF721FEFF220121044803B05DF804EBDC
:1099F000FFF7B8BCE4280020E81B010828FC000899
:109A000037B5154D298D89B2E9B101230A24288D76
:109A10001A4680B21946B0FBF4F0FFF704FEFF22AD
:109A200001210E48FFF79EFC288D80B2B0FBF4F3B5
:109A300004FB130001231A46194680B203B0BDE8A7
:109A40003040FFF7F0BD064B4E20009310231A461E
:109A5000FFF7AAFB03B030BDE42800202AFC000871
:109A6000E81B0108034B588D012380B21A461946A2
:109A7000FFF7D9BDE4280020034B988D012380B265
:109A80001A461946FFF7CFBDE4280020F8B51E4B53
:109A9000054602210E201C78FFF7C6FB1F23B5FBED
:109AA000F3F01A4BC0F10A0010F0F80F1968C5B2B4
:109AB000C0F3C4060BD0F32C8CBF01230D2320462A
:109AC00000272344DBB2421CD2B2934218D1FF22BA
:109AD00005F00705AA406025F32C8CBF01230D2358
:109AE00075432344DBB262F0FF02601CC0B29842AF
:109AF00000D1F8BD2C440E5D16400E550446F4E727
:109B00000F541046DFE700BFA8220020B821002034
:109B100048F2E80358436423C00B5843A823B0FB22
:109B2000F3F0174B5A8E92B23AB15A8E92B29042DB
:109B300091BF00205B8E9BB2C01A6FF46172114B13
:109B40001860114B1B889A18C72A15D80A22B3FB34
:109B5000F2F3C0F5491203F5967302F5D5529BB2A4
:109B600053430A4AB3FBF2F3C01AF323584342F2B9
:109B7000107390FBF3F070474FF6FF70704700BF13
:109B8000E4280020902600205A29002040420F009F
:109B900013B50122446801AB0078A04708B19DF8D5
:109BA000040002B010BD0000014B1868704700BFF0
:109BB000302E00200020704770470000BFF34F8F09
:109BC0000549064BCA6802F4E0621343CB60BFF359
:109BD0004F8F00BFFDE700BF00ED00E00400FA0575
:109BE0004AF6AA22014B1B681A60704778250020AC
:109BF0004FF0E0204FF0805408B506490B68012B68
:109C000005D9C0F8044DBFF34F8FBFF36F8FFFF737
:109C1000E7FFF3E74028002038B50D4C256AA0B1D6
:109C20000C4B1B788BB90220FEF73CFB94F82430D8
:109C300034F8132024F81300AD1A0133054403F05F
:109C40000F03256284F8243038BDC5F30F10FBE7FD
:109C5000B8280020582900202DE9F047DFF86C9043
:109C6000044699F800600F46DFF864806EB1C24682
:109C700000250120FEF716FB0135EDB2082D4AF84C
:109C8000040BF6D1013E89F8006057B10120FEF7C0
:109C900009FB104A137848F82300013303F0070347
:109CA0001370002213460A49013251F8040BD2B254
:109CB000082A0344F8D1012C38BF0124DB089B009B
:109CC000B3FBF4F080B2BDE8F08700BFFD010020D7
:109CD000502300204D2300202DE9F0471D4B00218B
:109CE000D88D80B2FFF7B8FF0A23B0FBF3F403FB73
:109CF000140080B20428A4B284BF0134A4B2092C99
:109D00001FD94FF00A090123B4FBF9F8124E194686
:109D100000221FFA88F0B6F90050FFF784FC0823F0
:109D20000E4F09FB18403B8001230022194680B2E8
:109D30003580FFF778FC00230C3535803B80BDE88B
:109D4000F08701232046BDE8F0471A461946FFF781
:109D50006ABC00BFE4280020A8220020AA2200201C
:109D600070B50F4B0021D88D0A2680B2FFF774FF23
:109D7000B0FBF6F504460123A8B200220221FFF74A
:109D800052FCFF2200210748FFF7ECFA012306FBF3
:109D90001540BDE870400022194680B2FFF743BC71
:109DA000E42800202CFC00082DE9F843254B002472
:109DB0001B78DFF89490002B0CBF43270027D9F8BD
:109DC0000000224E224DB0F57A7F37802C8020D3C0
:109DD000FF2221461F48FFF7C5FA0A23D9F80000E1
:109DE0002246B0FBF3F00321012380B2FFF71BFCF6
:109DF000FF2200211848FFF7B5FA082337802B808F
:109E0000FFF7AEFFBDE8F843FF2200211348FFF73C
:109E1000A9BA4FF00A08B0FBF8F00123224602214C
:109E200080B2FFF700FCFF2221460D48FFF79AFAA7
:109E3000D9F800002246B0FBF8F308FB1300012319
:109E40001946D2E7CC2100207C290020A82200203E
:109E5000AA22002029FD00082EFC000830FC000882
:109E60002CFC000808B5084B0146D88D80B2FFF7DE
:109E7000F3FE3C234043B0FBF3F0FF23C0EB002094
:109E8000B0FBF3F008BD00BFE428002010B5044685
:109E9000002C084606DC094BD88D80B2FFF7DCFEAB
:109EA000002010BDFFF7DEFFC4EB0424B4FBF0F08C
:109EB000FF2828BFFF20C0B2F3E700BFE42800203E
:109EC00010B50121FFF7E2FF902804461DD9134B7E
:109ED0001A780AB100221A70114B00201B689A6A86
:109EE000142A8ABF00225C635A63FFF7BBFFFF237B
:109EF000E82160430B4AB0FBF3F013684B43182191
:109F000001FB00331B0A136010BD6F28E4D8034B1C
:109F10001A78002AE0D10122DDE700BFFE0100200F
:109F2000CC2500207C290020F0B52C4E2C4D337818
:109F30002C4A85B043B92C4C00283CD12388002BF7
:109F400039D02B68002B36D0136829685B1A632B35
:109F500014D9264F13683C8803202B6084B9FEF780
:109F6000A1F9022338806946214803930093CDE983
:109F70000144FEF789FA4FF40033036105B0F0BDE8
:109F8000FEF790F9C4F500431B18174A0BD042F2B4
:109F90001071241A4C43B4FBF3F4A4B21480A4F55A
:109FA0006174C82C04D9002313803B802B60E5E743
:109FB00000233370E2E70023012123800224317063
:109FC00012680B482A60094ACDE9011369461380DB
:109FD00003940094FEF758FA0461CFE75829002053
:109FE00074230020302E00205A29002072230020E4
:109FF0000014014038B50E4B1B7803F0FF0423B169
:10A000000020FFF791FF204638BD0220FEF74AF9F5
:10A0100047F6D07398428CBF01240024054D04D824
:10A020002B7813B10120FFF77FFF2C70EBE700BF07
:10A03000582900204C2300202DE9F0413F4D2B787A
:10A04000834268D1022864D10A223D4B1B68B3FBCE
:10A05000F2F3C022B3FBF2F102FB113300224033D2
:10A06000DBB238494B7000230A708B7072B64FF424
:10A0700080774FF0010C4FF0807E334E072237611E
:10A0800011F803800CFA02F434EA080417D100BF77
:10A0900000BF00BF00BF00BF00BF00BF00BF00BFC8
:10A0A00000BF00BF00BF00BF00BF00BF00BF00BFB8
:10A0B00000BF00BF00BF00BF00BF00BF00BF00BFA8
:10A0C00000BF00BF00BF00BF00BFC6F810E000BF68
:10A0D00000BF00BF00BF00BF00BF00BF00BF00BF88
:10A0E00000BF00BF00BF00BF00BF00BF00BF00BF78
:10A0F00000BF00BF00BF00BF00BF00BF00BF00BF68
:10A1000000BF00BF013ABAD20133032BB6D162B609
:10A110002870BDE8F081032808D0042809D0012860
:10A1200009D0022890D0002213469AE70022FF238C
:10A1300097E78C22FBE7FF22002392E7FC01002037
:10A14000642900207829002000080140F8B5314B2F
:10A15000834259D1304A13780133DBB21370DB06E6
:10A1600052D12E4B1C68002C4ED0FEF74BF8EFF36B
:10A1700011864FF0500383F31188BFF36F8FBFF345
:10A180004F8F022394F8602084F86030E36D012A39
:10A1900003F10103D5B2E36502D086F3118833E001
:10A1A000A36A43B14FF0500383F31188BFF36F8F5D
:10A1B000BFF34F8FFEE71A4B1B6833BB271D384692
:10A1C000FEF7A1FA174A1420E36A11689D400D4377
:10A1D00039461560144A00FB0320FEF771FA134B51
:10A1E000E26A1B68DB6A9A42D7D90122104B1A60D7
:10A1F00086F311884FF0E0234FF08052C3F8042D0E
:10A20000BFF34F8FBFF36F8FF8BD0A4804F11801F9
:10A21000E3E700BFCC240020702300202C2800207E
:10A220006C290020742900204028002034280020B8
:10A23000342E0020182E0020436A9A6A12F0500F24
:10A240001AD19A6A42F400729A621A68926802F409
:10A250006022B2F5602F0CD11A7B52B99A6A22F4AF
:10A2600080729A629A6AD2045EBF9A6A42F00102D0
:10A270009A621846FFF76ABF1B6A1B6B1847704744
:10A280007047000037B5064C8DF8071001220146D3
:10A29000A56820780DF10703A84703B030BD00BFC3
:10A2A000BC240020064AD2E93A03834203D192F843
:10A2B000F0008000704798BF0433181A704700BF41
:10A2C000B8260020F8B50B460D4C0646A163216C5C
:10A2D00015460B4206D1FFF7E5FF074620B141F0D6
:10A2E000020121643046F8BD6B1C84F8346002D151
:10A2F0003E46E563F6E7236998470544F8E700BF63
:10A30000B8260020F8B55488034604F01F050D2D2B
:10A310001E4D04D114F4E04FC4F3023632D0164679
:10A3200085F8361085F835305488432124F460646C
:10A33000548095F82D3028785B0203F460631C4349
:10A3400026F8024FC4F30234A400114B023464F027
:10A350007F02AF681A710522B8473346224643216F
:10A36000AF682878B84704224321AC68094B2878A5
:10A37000A047BDE8F8404FF0FF3240F203610120F2
:10A38000FFF7A0BF85F82D60F8BD00BFB8260020FC
:10A3900004020020682001080023012213B50A48A6
:10A3A0008DF807304468114600780DF10703A04787
:10A3B00038B19DF807000138C0B2FD288CBF0020DD
:10A3C000012002B010BD00BFBC24002010B5064C17
:10A3D000236823B9FFF7E0FF08B101232360206859
:10A3E000431E5842584110BDD820002038B5FFF711
:10A3F000EDFF0246F0B1124B124DB3F8443095F820
:10A4000031109BB2C1B995F8300090B995F834116C
:10A41000192913D00C2911D013F0FF0409D02B698E
:10A4200098476B6CC01A64236343984294BF002022
:10A43000012038BD0120FCE70020FAE71046F8E7CC
:10A44000E4280020B826002008B5FFF7BFFF10B1B0
:10A45000FFF7CCFF08B9012008BD0320FCE700008E
:10A4600038B50020FDF71EFF40F23F1401220E4BCD
:10A4700053F83210D500884211DA4FF47A742B4425
:10A4800053E90252401B6043491B90FBF1F05B68AB
:10A490009B1A584390FBF4F0104480B238BD01324F
:10A4A000A242E5D10020F8E7AC16010810B5FFF78D
:10A4B000B3FBFFF72DFB0446FFF7D2FF0A23B0FBE7
:10A4C000F3F39BB2181920EAE07010BD10B50F4BE2
:10A4D00004465B8C98B2A8B10020FFF7E7FF052384
:10A4E00000EBC00090FBF3F303F1200001230321F4
:10A4F0001A4680B2FFF797F83CB1BDE81040022041
:10A50000FFF764B8FFF7D2FFF0E710BDE4280020A2
:10A5100038B50023204A04461380204A204D13807A
:10A52000204B1978E1B1FFF7D7FB1F48FF2201212B
:10A53000FEF718FF0120FFF7C9FF5CB102210846B2
:10A54000FEF772FE28680021FFF7A0FCBDE8384046
:10A55000FFF79CBAFF2201211348FEF703FFF1E742
:10A560002868FFF793FCFFF791FA7CB102210846B7
:10A57000FEF75AFE0120FFF7A9FFFF2201210A483A
:10A58000FEF7F0FEBDE83840FFF7A6BBFF22012131
:10A590000548FEF7E7FEEDE7A8220020AA220020EA
:10A5A0007C290020CC21002029FD000810B547F6A9
:10A5B000FF70FFF7ADFA0446FFF752FF0A23B0FB26
:10A5C000F3F39BB21819013810BD000070B5154B9C
:10A5D000154D06461C6828680430FEF794F840B90B
:10A5E0002A681249D06A01220B68824023EA0203DA
:10A5F0000B602B68A4195C6007D30D4B18682968A1
:10A60000BDE870400431FEF767B80A4B1868296846
:10A610000431FEF761F8084B1A68944238BF1C6099
:10A6200070BD00BF302E0020342800207429002087
:10A630003C280020382800200C2E0020174B10B595
:10A640001B6843B14FF0500383F31188BFF36F8F42
:10A65000BFF34F8FFEE7FEF767F8114B02681B68E8
:10A6600089182CBF0124002493420FD27CB90160C9
:10A67000FEF7BCF948B94FF0E0234FF08052C3F821
:10A68000042DBFF34F8FBFF36F8F10BD0CB98B42FA
:10A69000EDD20160C81AFFF799FFE9E76C290020A5
:10A6A000302E002008B550B94FF0E0234FF0805213
:10A6B000C3F8042DBFF34F8FBFF36F8F08BD074B57
:10A6C0001B680BB1FDF77AFDFEF72EF8FFF77EFF52
:10A6D000FEF78CF90028E7D0F0E700BF6C290020D6
:10A6E00070B50E4E35680544FEF7AAFB04465CB90A
:10A6F000FEF7A6FB04463220FFF7D4FF33689D42E5
:10A700000BD3002CF4D008E0FEF79AFB044632206D
:10A71000FFF7C8FF33689D42E9D270BD302E00209C
:10A7200010B5124AB2F84A309BB2042B13D9FEF787
:10A7300087FB044644B9FEF783FB04463220FFF74B
:10A74000B1FF002CF7D010BDFEF77AFB0446322093
:10A75000FFF7A8FFEEE74FF47A70BDE81040B2F8BB
:10A760004A309BB25843FFF7BBBF00BFE42800202C
:10A77000012838BF0120FFF795BF000010B50C4637
:10A78000044B19681831FDF7A7FF2046BDE81040BB
:10A79000FFF71CBF342800202DE9FF47642304463F
:10A7A000019340B94FF0500383F31188BFF36F8FCB
:10A7B000BFF34F8FFEE7056C45B14FF0500383F3B5
:10A7C0001188BFF36F8FBFF34F8FFEE7FEF784F959
:10A7D00040B94FF0500383F31188BFF36F8FBFF37D
:10A7E0004F8FFEE72946994F994E95E0019B5BB943
:10A7F000002D00F027814FF0500383F31188BFF341
:10A800006F8FBFF34F8FFEE721B93B680293914BE7
:10A810001B680393FDF71EFDFDF786FFFDF728FD7E
:10A8200094F8443001A9FF2B04BF002384F844307E
:10A8300094F8453002A8FF2B04BF002384F845306C
:10A84000FDF708FDFDF7FAFF002840F09C80FDF7BA
:10A850000FFDA36B002B57D1FDF7FCFC2368002BE9
:10A860003CD1FDF705FDA568002D34D03368D5F83F
:10A870002CA0DB6A9A457ED2AB69DFF8DC81002B25
:10A88000A8BF33686A69A2BFDB6AC3F10603AB6184
:10A89000142303FB0A839A4269D105F1040948464F
:10A8A000FDF731FF6D4B30B901211A6801FA0AF149
:10A8B00022EA01021A6032681968D26AEA62012546
:10A8C00005FA02F0084318601420494600FB028094
:10A8D000FDF7F6FE0120FDF7BDFC0546019904F1E8
:10A8E0002400FFF74BFF2046FDF766FFFEF77EF8DA
:10A8F00088B94FF0E0234FF08052C3F8042DBFF326
:10A900004F8FBFF36F8F06E02046FDF7A3FCFDF7E6
:10A9100053FFFEF76BF80121FDF7AAFCA36B002B98
:10A920003FF464AF013BA363236843B9484B1A6803
:10A930001AB119688A6D01328A651B68A3602369A0
:10A9400073B104F11000FDF7F7FE48B14FF0E023BA
:10A950004FF08052C3F8042DBFF34F8FBFF36F8FBA
:10A96000FDF778FC0125284604B0BDE8F087336880
:10A97000DB6AEB62AEE73368686DDB6A98422CBF36
:10A9800000200120A7E72046FDF716FFFEF72EF86E
:10A99000FDF76EFCA36B13B1FDF75CFCBBE7FDF7A5
:10A9A00059FC002DDFD0FDF763FC656A1DB1236BF8
:10A9B0001D68C5F10605A468002C43D0A26D42B9FC
:10A9C0004FF0500383F31188BFF36F8FBFF34F8FA6
:10A9D000FEE7636D9D4238BF1D46E36A9D4231D05C
:10A9E000012A2FD11A4A1268944208D14FF050031D
:10A9F00083F31188BFF36F8FBFF34F8FFEE7A26918
:10AA0000154E002AA4BFC5F10602A261142202FB62
:10AA100003636269E5629A4214D104342046FDF76B
:10AA200072FE01230D4AAB4018B9116821EA0301F7
:10AA300011601420116800FB05600B432146136070
:10AA4000FDF73EFEFDF706FC00258CE7102E0020EA
:10AA500034280020302E00204028002074290020B7
:10AA600008B5044B1868FFF797FE431E584258413B
:10AA700008BD00BFAC22002008B5044B1868FFF7E2
:10AA80008BFE431E5842584108BD00BFF8220020EB
:10AA900010B5134CFDF7ECFB2368DB6D7BB901228D
:10AAA000236883F86020FFF791FD4FF0E0234FF01B
:10AAB0008052C3F8042DBFF34F8FBFF36F8FFDF7A4
:10AAC000C9FBFDF7D5FB2368D86D10B100222368C0
:10AAD000DA650022236883F86020FDF7BBFB10BD18
:10AAE0003428002013B590F83D30044603F0FF02EF
:10AAF00000687BB91D4B84F83C20984228D103F5AF
:10AB00000333DA6942F00202DA61DB6903F002031F
:10AB10000093009B0223211D84F83D30FDF798FD32
:10AB20000123002084F8463084F83E3084F83F301A
:10AB300084F8403084F8413084F8423084F843305F
:10AB400084F8443084F8453084F83D3002B010BDBC
:10AB5000B0F1804FDED1064BDA6942F00102DA61D2
:10AB6000DB6903F001030193019BD3E7000400407C
:10AB700000100240134B10B5DB68C3F30223C3F18E
:10AB800007041A1D042C28BF0424062A88BFDA1ED5
:10AB90004FF0FF3398BF0022A34021EA03030028AF
:10ABA00003FA02F3ACBF00F16040074A4FEA031317
:10ABB000DBB2ABBF00F5614000F00F0080F800335E
:10ABC000135410BD00ED00E014ED00E010B54CF2A0
:10ABD00050342049204B0868DA68D20733D4DA6849
:10ABE000910644BF2022DA60DA68D20606D4DA6918
:10ABF000D40703D4D86810F0040023D0164AD368D1
:10AC000013F0100305D01549CB6943F00203CB6163
:10AC10001023D268500706D5104943F00403CA69CF
:10AC200042F00102CA610C4AD169C90708D50B4834
:10AC3000C16941F00401C161D16921F00101D16113
:10AC40000120D36010BD0A68121AA242C4D90320A1
:10AC5000F8E700BF64290020002002409826002069
:10AC600070B5826A044686B0002A3CD1684B016800
:10AC7000C262994280F8242003F56C4340F088803A
:10AC800099694FF0800C41F4007199619B696149A9
:10AC900003F400730293029B5F4B4FF4006EC3E911
:10ACA00000124FF40071C3E903C12021C3E905E19B
:10ACB0005A481A649A60DA618168D86321F47F5136
:10ACC00021F0300141F42A6181609A634FF480726F
:10ACD0001A8423625C620F211220FFF74BFF4FF4AE
:10ACE00080224F4B1A602046FDF730FBA36A13F019
:10ACF000100340F08880002840F08580A26A6168D7
:10AD000022F4885222F0020242F00202E069A568B1
:10AD1000A262227B0143B5F5807F41EA42015BD00C
:10AD20006E1E704270410002267D012E07D1002A5E
:10AD300054D1A269013A40EA423242F400602268EA
:10AD4000B5F5807F566826F4694640EA06005060F3
:10AD50009668344800EA060040EA0100906001D09D
:10AD6000012D02D12369013B1B05D06A20F470003C
:10AD70000343D36292682C4B1340994237D100238E
:10AD8000E362A36A23F0030343F00103A36238E004
:10AD90009A69032542F480629A619B69022603F452
:10ADA00080630193019B0423204802A9CDE9023569
:10ADB000FDF76AFB00F58060CDE90265FDF764FBF5
:10ADC000A0F58060CDE90265FDF75EFB2023CDE9AB
:10ADD0000235FDF759FB7EE72846A5E7A26A42F057
:10ADE0002002A262E26A42F00102E262A7E7A36ADD
:10ADF00023F0120343F01003A362E36A43F001035C
:10AE0000E36206B070BDA36A43F01003BEE700BF63
:10AE100000240140080002403025002000000240CC
:10AE200000E100E0FDF7E1FFFE0E1FFF000801401A
:10AE300090F83C30012B1FD0022380F83D3003688E
:10AE400059689A6821F0700159600C498B420AD008
:10AE5000B3F1804F07D0A1F594318B4203D001F5B7
:10AE600080618B4202D122F080029A60012380F837
:10AE70003D30002380F83C30704700BF002C01407B
:10AE80001421D0E9003212881B6801FB02335A6892
:10AE900002B11047187C342801D8FDF793BE7047E3
:10AEA0000223C9B980F83E300122036802FA01F199
:10AEB0001A6A22EA01021A621A6A1143144A1962D2
:10AEC000934215D15A6C42F400425A649A6802F0D7
:10AED0000702062A16D17047042902D180F83F30B4
:10AEE000E2E708290CBF80F8403080F84130DBE70A
:10AEF000B3F1804FEAD0074A9342E7D002F580626F
:10AF00009342E3D01A6842F001021A60704700BF12
:10AF1000002C01400004004010B590F83D3004467C
:10AF200003F0FF020BB980F83C200223206884F86C
:10AF30003D30211DFDF78CFB012384F8463084F859
:10AF40003E3084F83F3084F8403084F8413084F853
:10AF5000423084F8433084F8443084F8453084F833
:10AF60003D3010BD054B1A69120605D5044A5A60DA
:10AF700002F188325A601B69704700BF002002400E
:10AF80002301674537B501461E20FFF7F3FD4FF05B
:10AF90008042214B214C1A60214B224DDA69204618
:10AFA00042F00402DA61DA6902F004020192019AC5
:10AFB0005A685A685A685A681B4A12685B681B4A82
:10AFC000C3F30223D25C1A4B25601B68D340194A95
:10AFD0005B00B3FBF2F3013B40F2E7326360002316
:10AFE000E2602361A360FFF77DFD98B994F83D30DE
:10AFF000012B0FD1022384F83D30EB6843F00103AD
:10B00000EB60AB6803F00703062B1EBF2B6843F011
:10B0100001032B6003B030BD00E100E014260020E6
:10B020000010024000080040002002407BFD0008A4
:10B030005000002040420F00024BC022002118683F
:10B0400004F09EBDB821002038B505460C46FFF738
:10B05000F3FF2846FEF73EFA074B084A1B681268C2
:10B060009B1A41F28832934203D8201E18BF012058
:10B0700038BD0120FCE700BF302E00205C260020F8
:10B0800038B504460D46FFF7D7FF22460121107858
:10B090004B1E9BB240BB03EB43039B009BB2602B58
:10B0A0002DD91B4A928C92B2012A0CBF0A2214227B
:10B0B000B5FBF2F103F1600209B291FBF2F002FB81
:10B0C00010115F2921DD99421DDC0BB2114AC3F139
:10B0D000600313800022104B20461A800121BDE836
:10B0E0003840FF22FEF73EB9F02803D80132013183
:10B0F00089B2CCE750780028CDD00232F7E7C3F10F
:10B10000600203EB62031BB2E0E76023DEE700BFEF
:10B11000E4280020A8220020AA2200202DE9F341E3
:10B120000646DDE908040F46984640B94FF0500343
:10B1300083F31188BFF36F8FBFF34F8FFEE744B9DE
:10B140004FF0500383F31188BFF36F8FBFF34F8F1E
:10B15000FEE764230193019B642B08D04FF050035A
:10B1600083F31188BFF36F8FBFF34F8FFEE7950016
:10B170002A46A5212063019B04F002FD226B043DB9
:10B180002A4422F00702002F00F096807B1E04F173
:10B1900034011F3713F8010F01F8010B08B1BB424E
:10B1A000F8D1002384F853304346052B28BF0523EC
:10B1B000E3626365C3F106030021A3614FF080736E
:10B1C000A1656161A16224616462E16584F8601037
:10B1D00042F8043C3F4B26F0010642F8086C42F866
:10B1E0000C3C42F8201C403A2260FDF741F83A4AF4
:10B1F0003A4D13683A4E013313602B68002B5ED131
:10B200002C601268012A2ED132464FF0FF3C1420E8
:10B210001F4602F10801C2E9011CC2E9031100FB4B
:10B2200003F10133062B775002F11402F1D12D4ABC
:10B2300002F10803C2E9013CC2E903332A4B17605B
:10B2400003F10801C3E9011CC3E9031127491F6089
:10B2500001F108000F60C1E9010CC1E903002449B4
:10B260000A60244A1360244A244913680868013399
:10B2700013600123E26A9340034314200B6000FB38
:10B280000260211DFDF71CFAFCF7E4FF1C4B1B6854
:10B2900073B12B68DA6AE36A9A4209D24FF0E0236D
:10B2A0004FF08052C3F8042DBFF34F8FBFF36F8F61
:10B2B000204602B0BDE8F08184F8347074E7104B8A
:10B2C0001A68E36A002ACED12A68D26A9A4298BFE5
:10B2D0002C60C8E7D18100086829002034280020AC
:10B2E000402800208029002094290020182E0020CA
:10B2F000382800203C2800207029002074290020D4
:10B300002C2E002037B50446D0E90010A569B4F909
:10B310000830226901956469842B0CBF0023033334
:10B320000094FFF7FBFE03B030BD00002DE9884814
:10B330000020FEF7C5FD002320247E4A7E4D1360C9
:10B340007E4B1A687E4B1A600520FFF7A1FB012097
:10B35000FFF7ACF8E88D012180B2FEF77DFC013CDF
:10B36000F2D1784C0020FEF7DFFD23788BB940F650
:10B37000B738754C754FFFF739F888B923787BB922
:10B380003B6843450CD86420FEF72AFCFFF780FB9E
:10B39000F1E74FF4FA60FEF723FCFFF779FBE1E7F2
:10B3A0006B4F4FF4FA60FFF773FB002800F0BD808D
:10B3B0000120FFF77BF85F4B83461C68DFF88CA108
:10B3C000002C644EDFF89081DFF8909140F3A68066
:10B3D000B4F5E17FA8BF4FF4E174FFF7E7F8A042AE
:10B3E00002DAFFF7E3F80446A4EB0B04032C04DDB8
:10B3F0003168ABEB0101032906DDDAF80020C6F85D
:10B4000000B0C8F800200BE0DAF80020D8F80030CF
:10B41000D31A4AF6C872934202D9012389F8003040
:10B420004FF47A7B4E49DAF800300A6800209B1A04
:10B43000BBFBF3FBDAF800300B60FEF713FDAB8EBD
:10B440009BB243B10A22AB8E9BB253439842C2BF18
:10B45000A88E80B25043434B1B6823B10A2253434A
:10B460009842A8BF18464123B3FBFBF33E49C3F102
:10B4700064030A685343642293FBF2F38222544329
:10B4800094FBFBF42344834242DD086008682B8D63
:10B490009BB20BB340F6C4116B8D344C9BB24B4343
:10B4A000DAF800202168521A934209D2FA21AA8DB3
:10B4B000DAF8003092B2236001FB02332C4A1360A9
:10B4C0002B8D9BB2984207DA294ADAF800301268CD
:10B4D0009A4284BF288D80B247F6DF72254B1B6AE3
:10B4E000C3F30F13934288BF002099F80030002B5C
:10B4F00018BF00203B68C21A322AC8BF03F13200CD
:10B5000020EAE0703860FEF7DBFCFEF769FB48E7F5
:10B5100040428342ACBF0B600860B7E7DAF8002016
:10B520003060C8F800200020B1E7134B1B689A6A0E
:10B53000586336E764240020E428002034280020E3
:10B540002C280020582900202C250020302E0020F7
:10B550008C2300207C2300208023002074250020E1
:10B5600088230020302800208423002094230020FA
:10B5700090230020B8280020CC2500202DE9F74F8B
:10B5800005462C220C464E48002104F0F9FA4C4A9C
:10B590002B1D05F11C07164618685968083303C6A9
:10B5A000BB423246F7D11868012230600026454B75
:10B5B00041F288311A706B88FF22354644F62068C4
:10B5C000DFF8FCE0C3F3023901965FFA86FCE1453F
:10B5D00023D802201023FF2AA070E37066D0019BBD
:10B5E00001321207002B5CD005202B1DB3FBF0F3BA
:10B5F0001420B1FBF0F003F07F0342EA4022134332
:10B60000694343F0807363602F4BB1FBF3F12F4B21
:10B610001960012003B0BDE8F08F5EF8043B13F021
:10B62000404A16D13227C3F3892078430FD04045D2
:10B630000DD8C3F30903B0FBF3FBBBF1FF0F06DC2E
:10B64000884204DD624681B29DB2CDF804A0013685
:10B65000BBE7BAF1404FFAD113F0405FF7D11C4875
:10B66000B0F8500080B20028F1D003F07F00C3F39F
:10B67000474303EB830303EB83039B009BB24345E8
:10B68000A8BF434600EB8000C0EB002A5345A8BF8B
:10B6900053468B42DBDD99B2012362460546019396
:10B6A000D5E745EA020343EA8523A9E7642323712A
:10B6B0006FF06F0363710123A3711123E371A8E796
:10B6C000602600202C250020A086010030280020C4
:10B6D000E428002070B50146FEF7E4FD00B3114AEE
:10B6E00089B1D2F8E83002F1680404EB43140B4648
:10B6F00004F12006254603CDB542186059602C465A
:10B7000003F10803F6D1D2F8E83092F8F0100133D3
:10B7100003F00303C2F8E83011B10BB982F8F0303E
:10B7200070BD00BFB826002010B5194C88B0216C40
:10B7300001F07F412164FEF7B5FD28B36846FFF7AD
:10B74000C9FFBDF8023003F01F02012A15D113F41E
:10B75000E04F12D194F82D20C3F3422393420CD131
:10B76000226C013303F0070342F0040294F8350021
:10B7700084F82D30226408B010BD236C43F0080318
:10B78000236494F83600F6E741F008012164F8E7F5
:10B79000B82600202DE9F043AE4E89B006F14805E9
:10B7A00096F834410E2C00F01C8275D8072C00F05E
:10B7B000028121D8032C00F074830AD8012C00F0F8
:10B7C000F482022C00F0F982002C00F0CD820320DC
:10B7D00009E0052C00F0B980062C00F0C680042C8E
:10B7E0000CBF05200320844286F83401D8D1002CF8
:10B7F000D6D109B0BDE8F0830B2C00F062810DD8E2
:10B80000092C00F01C810A2C00F02A81082CDED1C2
:10B810000F210920904AFEF775FDE4E70C2C40F05B
:10B82000D8810022336C32645A0600F104819F06ED
:10B8300069D4180600F1C981D90500F1BA80DA048B
:10B8400000F1C5819F047ED498076BD50127FEF7D0
:10B8500029FD002866D02846FFF73CFFB6F84A309D
:10B8600003F01F020F2A40F0598113F4E04FEED18C
:10B87000F18D01F0C0018029E9D1190440F19D81C9
:10B88000B6F84C10C1F30801192940F29681112A2B
:10B8900014BF15201620A6E7172C00F0DE8134D83F
:10B8A000132C00F0BB8111D8112C00F0A581122CB3
:10B8B00000F0AB810F2C8AD196F93230022B00F3C5
:10B8C0005182013386F8323010208CE7152C00F0BD
:10B8D000B281162C00F0EB81142C7FF478AF336C1E
:10B8E00003F07F433364FEF7DDFC60B12846FFF7C9
:10B8F000F1FEB6F84A3003F01F02032A40F09481AB
:10B9000013F4E04F36D00F206DE71B2C00F0898236
:10B910000ED8192C00F01F821A2C00F05A82182C15
:10B920007FF455AF4FF0FF3243F6FF710C2019E062
:10B930001C2C00F08B821D2C7FF449AFFEF7B2FC6B
:10B94000002840F097821C204DE7002386F8303015
:10B9500086F8353133643369984742F21072706467
:10B9600023210620FEF7AEFC3DE70022336C326453
:10B97000990601D5052036E7FEF794FC0028F9D09A
:10B980002846FFF7A7FEB6F84A2002F01F03012B56
:10B99000F2D112F4E04FEFD0F38D13F0C00F08D1C5
:10B9A00002F0C0027F2A8CBF43F0800343F04003C3
:10B9B000F385072017E7FF2386F833300023B6F816
:10B9C0004A202649C2F3023293420CD051F8040BAC
:10B9D000013300F04047B7F1404FF5D110F0405F20
:10B9E000F2D186F83330F36C1B49C3F3C062C3F362
:10B9F000C05386F8713186F82C20B369A1F1CC00D0
:10BA00009847002800F0D780F38DB6F816211A4326
:10BA100003F0C003802BA6F816210CD1D6F81831FC
:10BA2000002B4FEA137208DB96F833309A4204D3A6
:10BA3000012386F835310820D5E60023F9E7336C79
:10BA400003F07F43336440F68C2240F603010A2062
:10BA500088E700BFB8260020CC270020042700205C
:10BA6000336C03F07F433364FEF71CFC0028EAD0FC
:10BA70002846FFF72FFEB6F84A3003F01F02032ACC
:10BA800013D1B6F81631C3F30233022B0CBF0123D6
:10BA9000002386F8723103D133699847C6F83C0118
:10BAA00041F2883203210B205CE70D2A6ED003F0AF
:10BAB0001703042BD8D196F83030002B7FF432AF27
:10BAC00058E7336C03F07F433364FEF7EBFB08B9B0
:10BAD000122088E62846FFF7FDFDB6F84A3003F04D
:10BAE0001F03062B17D1002386F8313096F87131E9
:10BAF00063B196F870314BB196F8723133B90123C6
:10BB000086F83130336C43F480533364012386F874
:10BB100030300C2067E6012BD7D14AE7052A04D143
:10BB200013F4E04F3FF493AEA2E6092A04D113F4D4
:10BB3000E04F7FF49DAE06E0072AF8D00A2A04D130
:10BB400013F4E04F24D115204DE60B2AEFD0022A42
:10BB5000F9D0042A06D0012A09D113F4E04F3FF4AA
:10BB600087AE26E713F4E04F3FF482AEEBE7082AF6
:10BB700005D113F4E04F7FF47BAE0E2033E60D2A9F
:10BB80007FF476AE13F4E04F7FF472AE11202AE614
:10BB900096F84A30032B02D186F8727157E6042BCF
:10BBA00003D1002386F87231B3E7052B7FF44FAE43
:10BBB000002386F87231062015E6102A88D113F486
:10BBC000E04F14BF122018200DE60D200BE61B20BD
:10BBD00009E6F38D43F00703A6F84A302A460F2101
:10BBE00034E0F18D284601F0C0017F2994BF002187
:10BBF000012173699847F1E7F38D6A4643F00D031D
:10BC00000F210520ADF8023005E6F38D2A4643F0FA
:10BC10000D030F211320A6F84A30FCE540F68C22D4
:10BC200040F6030114209DE60D2A7FF46CAE13F458
:10BC3000E04FABD067E6F38D03F0C002402A07D196
:10BC400043F00403A6F84A302A4612210C20E2E50C
:10BC5000802AF9D143F01003F4E70022336C3264F8
:10BC60009F0705D44FF0FF3243F6FF71172079E6A6
:10BC7000FEF718FB0028F5D02846FFF72BFDF38DC3
:10BC800003F0C003802BF3D1B6F94A20B6F84A304E
:10BC9000002AEDDAB6F84C20C2F30802192AE7D9D7
:10BCA00003F01F03112B0CBF162015209BE5B6F8DF
:10BCB0004C707805D6D44FF01A09C7F3C32709FB97
:10BCC00007F9B6F84A20CFBB774B03F1F60203F130
:10BCD000180E9446186859680833ACE80300734599
:10BCE0006246F6D11868CCF800009B88ACF80430A6
:10BCF000B6F84A80C8F3023309EB8309B6F842313B
:10BD0000A9F10209C3F30803994522DA1A22002196
:10BD1000664803F035FFF38D08F01F08013748EA45
:10BD20000308FF0248F4104847F404472A460F214D
:10BD30001720A6F84A80A6F84C706CE5C2F30232D0
:10BD400009F5A27092005949023A304403F030FFDD
:10BD5000CEE71A2047E500234FF4FA6086F830302A
:10BD6000336A984719203EE533699847F36B984248
:10BD700082BF336C43F400633364306C01050AD531
:10BD800096F8343000F07F40113B032B306494BFB1
:10BD90000320122027E5C2073FF596ADB36B18408C
:10BDA0003FF421AD96F834001DE50022336C326477
:10BDB0009B0509D5FEF776FA10B1FFF7B5FC12E541
:10BDC000022178220846CDE5082396F83600336430
:10BDD00009E5336998473649C6F83C01F36901F132
:10BDE0002C00984700283FF4E6AED6F818311B0F18
:10BDF00006EB8303D3F8403103F04042B2F1404FE9
:10BE00000DD113F0405F0CBF01230023F28D86F8A3
:10BE10003531B6F816311343A6F816310BE6002378
:10BE2000F4E733699847F38DC6F83C0143F4805337
:10BE300043F00A03A6F84A3096F870311B0443F029
:10BE40008073F364CAE60020FFF744FCFEF72AFA89
:10BE50000028F8D1012386F83130F38D2A4643F4C7
:10BE6000104343F01003A6F84A30124B0C211D205A
:10BE7000F364D0E42846FFF72DFCB6F84A3003F00F
:10BE80001F03102B7FF45AAD96F84E30042B7FF42D
:10BE900055AD002386F8313033699847C6F83C0128
:10BEA00037E604209FE400BF022700200627002079
:10BEB000CC270020028003002DE99F48FEF786FA78
:10BEC000002800F0968001210C20FEF7DBF9002805
:10BED00000F08F80AE4D0A20EB6898470624FEF7ED
:10BEE0005BFA00287DD00F210B20FEF7CBF900284C
:10BEF0007FD000210A20FEF7C5F9002879D0002163
:10BF00000E20FEF7BFF9002873D000210F20FEF7A6
:10BF1000B9F900286DD00C210620FEF7B3F90028EE
:10BF200067D007210920FEF7ADF9002861D0002174
:10BF30000820FEF7A7F900285BD004210720FEF7B0
:10BF4000A1F9002855D007210220FEF79BF900280F
:10BF50004FD00A20EB68984740218D48FDF718FE26
:10BF60000B2104460220FEF78DF9002841D00A205B
:10BF7000EB68984740218648FDF70AFE04F0030469
:10BF800000F00300844240F2948025210320FEF754
:10BF900079F970B307210220FEF774F948B3442100
:10BFA0000620FEF76FF920B304210720FEF76AF997
:10BFB000F8B102210C20FEF765F9D0B10123202051
:10BFC000032474498DE81B0069467348FCF75CFA4A
:10BFD0000A211720FEF7CEFD4FF400026F4B1A60C6
:10BFE00007E00A20EB68013C984714F0FF047FF457
:10BFF00076AFFFF7CFFBDFF8A081694DD8F80830A6
:10C00000684C13F0200F5CD1D8F808309B062AD476
:10C010006B4607223C2166682078B04718B39DF82C
:10C020000330DF070AD55F4E06F1F60A06F1F8097C
:10C0300041213046FDF7ACFD800678D59DF80230F1
:10C040005E0700F1DD80D90642BF226C42F48062B7
:10C0500022641A0607D59DF805309B0742BF236C62
:10C0600043F02003236494F835317BB1236998476A
:10C07000D4F83831C01AB0F57A7F07D9236C43F071
:10C080004003236423699847C4F8380194F8723157
:10C0900053B123699847D4F83C31C01AC82882BFED
:10C0A000236C43F400532364FFF774FBFEF79EF9FF
:10C0B000A4E726210320FEF7E5F8002899D00B21FC
:10C0C00069E7FCF7D5F82B6893F86030022B13D0A2
:10C0D0002B683220DA6DDA6501222B6883F8602044
:10C0E000FEF774FA4FF0E0234FF08052C3F8042DAE
:10C0F000BFF34F8FBFF36F8FFCF7ACF8FCF7B8F8C6
:10C100002B6893F86030022B03BF2A680121D36D9E
:10C11000002104BF03F07F43D36500222B6883F81E
:10C120006020FCF797F800293FF46EAF70E74321D9
:10C130003046FDF72DFD534602224321676800F08B
:10C14000E00B2078B847B4F8F63013F4E04FC3F3AF
:10C15000023205D04B464321676820789200B847E9
:10C16000042243216768104B2078B847BBF1E00FE9
:10C170007FF45EAFB4F8F63003F01F020D2A15D13C
:10C1800013F4E04F12D1236C43F0010323644FE713
:10C19000BC24002000002110000C014000E100E060
:10C1A00034280020B82600209A230020D4F8EC7010
:10C1B000DFF858C004EB47176837BCE80F000FC71B
:10C1C0009CE80F0087E80F00D4E93A239A4203F174
:10C1D000010306D194F8F0201AB103F00302C4F869
:10C1E000E820D4F8E82003F003039342C4F8EC30CD
:10C1F00004BF012384F8F030236C43F00203C5E749
:10C20000226C42F4007222641DE700BFAC270020BC
:10C210002DE9F843044640B94FF0500383F31188E9
:10C22000BFF36F8FBFF34F8FFEE7056C45B14FF043
:10C23000500383F31188BFF36F8FBFF34F8FFEE777
:10C24000FCF74AFCFCF714F8A26BE36B9A4273D23A
:10C25000226CA76B002A5FD12368B3B10025013798
:10C26000A763636A002B65D004F12400FCF764FA2D
:10C27000002861D04FF0E0234FF08052C3F8042D26
:10C28000BFF34F8FBFF36F8F56E0A5681DB9002530
:10C290000023A360E3E72A4B1B689D4208D04FF0C0
:10C2A000500383F31188BFF36F8FBFF34F8FFEE707
:10C2B000AB6D43B94FF0500383F31188BFF36F8F19
:10C2C000BFF34F8FFEE7D5F82C906E6D013BB14563
:10C2D000AB65DCD0002BDAD105F104084046FCF751
:10C2E00012FA184B30B901211A6801FA09F122EA51
:10C2F00001021A60C6F10602EE62AA61012514204D
:10C30000196805FA06F20A431A600F4B414600FB12
:10C310000630FCF7D5F9BBE72946606803F048FC16
:10C320006368226C1344A2686360934296D32368C7
:10C33000636094E7002D9DD1BDE8F843FBF78ABF09
:10C34000342800207429002040280020014B186860
:10C35000FFF75EBFAC22002038B50546FEF780FB34
:10C36000044648B1FCF7C0FD2846FCF74DFE0446E4
:10C37000FCF7E4FDFFF7EAFF204638BD2DE9F8435E
:10C3800080460E4617461D46FEF76AFB044660B11E
:10C390005FFA88F8FCF7A8FD4046FCF735FE38B98F
:10C3A000FCF7CCFD0024FFF7D1FF2046BDE8F88361
:10C3B000F0B2FCF729FE0028F2D04FF480021B4BAC
:10C3C0001B491A6100230A88934210DBFCF78CFD9D
:10C3D00048F00100FCF718FE04460028E0D0DFF822
:10C3E0004C803DB9FCF7AAFDFFF7B0FFDDE700BFC9
:10C3F0000133E8E74FF008090026FCF7C3FD76009B
:10C40000F6B209F1FF39064319F0FF09F6B2F4D18B
:10C410008023012D0CBF28464846C8F81030013D46
:10C42000FCF7D0FDADB207F8016BDAE7000C014074
:10C430000000002010B414461A46234610BCFFF733
:10C440009DBF2DE9F04180460F4616461D46FEF77A
:10C4500007FB044658B1FCF747FD5FFA88F0FCF78C
:10C46000D3FD38B9FCF76AFD0024FFF76FFF2046C3
:10C47000BDE8F081F8B2FCF7C7FD04460028F1D012
:10C48000013E25B9FCF75AFDFFF760FFEFE7FDF726
:10C49000A7FB16F8010FFCF7B7FD0028E2D0013D1D
:10C4A000ADB2EEE72DE9F34117460C460026804673
:10C4B000637840468DF80730217801230DF107029B
:10C4C000FFF7BFFF054640B1A07808B1FBF7FEFEBD
:10C4D0000136B74204F10304EADC284602B0BDE8A5
:10C4E000F08110B414461A46234610BCFFF7A9BFCA
:10C4F000014B1868FFF78CBEF8220020F8B50746FC
:10C500000E461546FEF7B8FA044650B1FCF794FD06
:10C51000F8B2FCF72FFE30B9FCF7BCFD0024FFF7A2
:10C52000E7FF2046F8BDF0B2FCF724FE0028F3D068
:10C53000FDF756FB2878FCF71DFE04460028EBD0DB
:10C54000FCF7A8FDFFF7D4FFEBE7000007B50A4BA7
:10C550005A3893F84020C0B2824209D083F8400094
:10C560008DF80700802178200DF10702FFF7C6FF44
:10C5700003B05DF804FB00BF0200002010B5094CB9
:10C58000B4F8460080B2003818BF0120FCF79AFECC
:10C59000B4F84600BDE8104080B2003818BF012052
:10C5A000FFF7D4BFE4280020F7B50E460446002765
:10C5B0006378782021780DF107028DF80730FFF7B6
:10C5C0009DFF054640B1A07808B1FBF77FFE01371B
:10C5D000B74204F10304EBDB284603B0F0BD0000D2
:10C5E000064B93F82E20824206D083F82E000221BB
:10C5F00003F12A00FFF7D8BF704700BF02000020F8
:10C60000192310B5094CB4F8480080B2B0FBF3F020
:10C610000123013080B21A461946FDF704F8B4F838
:10C620004800BDE81040C0B2FFF7DABFE4280020A0
:10C6300038B50446FEF720FAB8B1FCF7FDFC7820C7
:10C64000FCF798FD28B9FCF725FDBDE83840FFF759
:10C650004FBF064D15F8010BFCF78CFD0028F2D0FA
:10C66000013CA4B2002CF5D1EDE738BDDD2000205F
:10C6700008B5FCF741FA20B1BDE80840D120FFF72A
:10C68000D7BF08BD70B50446094D2E6829682046FD
:10C69000891BFEF7F5FCFCF7D3FB28B9FFF7E8FF91
:10C6A0002820FDF7FFFFF1E7431E5842584170BDB7
:10C6B000302E002008B5094BB3F84C309BB24BB973
:10C6C0000748FFF7DFFF38B10121BDE8084024200B
:10C6D000FCF762BA0021F8E708BD00BFE42800209B
:10C6E0004609010808B5084B1A7882420BD0187029
:10C6F000064B523858701020FFF79AFFBDE80840EB
:10C700000A20FDF7CFBF08BDDC200020DD2000207F
:10C7100070B5154E04463378834224D0002C0CBFEC
:10C72000C025C8251148A4F16003192103770574B9
:10C73000FFF73AFF0A20FDF7B5FF0D4B84F0010229
:10C740005201002C5A710CBF7F225F225D72D120F2
:10C75000DA713470FFF76CFF0A20FDF7A3FFBDE824
:10C760007040FCF7C9B970BDCC2100200200002048
:10C77000DD200020482373B50193019B0446482B1C
:10C7800008D04FF0500383F31188BFF36F8FBFF3CE
:10C790004F8FFEE70021019B01232060C0E90F318C
:10C7A000FBF766FDD0E90F356B4302688163D6184D
:10C7B0005B1B42601A44FF23C2604FF0FF3280F8D7
:10C7C000443080F8453000F11803C0E90623436186
:10C7D000036200F12C030161C0E90A32C0E90C33A5
:10C7E00086604162FBF736FD81600160C160FFF742
:10C7F0000FFD204602B070BD2DE9F0472F4E742288
:10C8000030462F4903F0C4F9002854D0FDF7E8F969
:10C8100035232C4D2C4CEB600120FEF7A3FBFBF7DE
:10C8200055FDFDF7DDF9237E012B16D0012323767C
:10C83000FEF7CCF978B9E0612B6943F002032B6174
:10C840006E612B6943F040032B61FEF7BFF92B6942
:10C8500023F002032B6100232376FEF783FB4FF0C6
:10C860000109174F154D174EDFF86080FDF7B8F935
:10C87000237E012B15D0B7F800A084F81890FEF79E
:10C88000A5F960B9E061336943F001033361A5F8AC
:10C8900000A0FEF79BF9336923F001033361002305
:10C8A00023760235454507F10207DFD1054A1369B2
:10C8B00043F080031361BDE8F08700BF00FC01086E
:10C8C000E4280020002002409826002074FC010883
:10C8D0002DE9F04F89B0FEF7AFFBFCF7B1FA074640
:10C8E000002800F090800120FFF7FCFE794B1D68C6
:10C8F000072D00F06A8300F30981032D01F0008207
:10C9000000F3A880012D01F0A080022D00F03282FA
:10C91000002D00F0A2824FF0000B6F4B6F4EC3F85A
:10C9200000B0F08D594680B2FDF796F95846FDF7F4
:10C93000BDFD6B4BB6F81E901C786A4D5C4514BF6C
:10C9400032234FF0FF33DFF8A0811FFA89F98246C6
:10C950002B80A8F800B0B9F1000F00F09B83FDF721
:10C9600049FB002800F04A83002C00F03D835F4B18
:10C970002A220093594610233620FCF715FC4FF06D
:10C98000FF33F08D002180B24FF00A0A2B80FDF7B3
:10C9900063F90123B0FBFAF906461A4602211FFA91
:10C9A00089F0FCF740FEFF2201215148FCF7DAFC38
:10C9B00001230AFB19601A46194680B2FCF733FEC0
:10C9C000002C0CBF5B2330232B800823A8F80030F9
:10C9D000FF2200214748FCF7C5FC474C1FB1A38943
:10C9E000002B00F0F8820123042FA38100F0D583EF
:10C9F00000F2CC839F4200F0D983022F40F0EB82FB
:10CA00000925A360CDE1FDF751FD3128044619D871
:10CA1000324B5B8A9BB2ABB13849394A0B6812681A
:10CA20009B1A4EF6602293420CD90B68354909686F
:10CA30005B1A934206D93846FFF754FE3846FDF795
:10CA4000FBFA53E70120FFF74DFE372C8CBF042083
:10CA50000120F4E7052D214E274C00F0AF83062D71
:10CA60007FF459AFA38913B9B6F8543023834FF438
:10CA70007A7BB6F85630082F9BB2BBFBF3FB00F075
:10CA80009084102F00F08D84708C80B2002800F00C
:10CA9000D7840020FDF70AFD052300EBC00090FBC2
:10CAA000F3F909F120091FFA89F9236913B9134B26
:10CAB0001B682361638B002B40F0C884B9F1360FEB
:10CAC000A4F81A9040F2C28439460F48FEF7BCFA27
:10CAD00081E200BF0C02002064240020E428002032
:10CAE000CC210020A8220020AA22002068240020B7
:10CAF0002AFC000830FC000848240020302E0020CA
:10CB00008C2600205C260020080A01080A2D00F06F
:10CB1000828600F39E80082DA54C01F0F980092D36
:10CB20007FF4F9AEE389B4F80CA0002B01F00E807D
:10CB3000A04A013B52F82AB01FFA83FA142340F6A8
:10CB4000B730DFF874829D4903FB0AF3D8F8002060
:10CB50000968CDF814B0521A8242ADF812A00BEB5E
:10CB6000030940F2F7871BF80330002B00F0F2872F
:10CB70000123638399F80060914BD8F8002003F5F6
:10CB80008F7003EB4603B3F84030A2F6B832511A67
:10CB90001844FEF775FA238B23B980215846FBF71A
:10CBA000C4FF2083638B002B37D10AF10101584663
:10CBB00089B2FBF7BAFF064608B1461EB6B299F82D
:10CBC0001000B4F818A0342800F2E187FCF71CF834
:10CBD00080F00100C0B2FA22D8F80030B3FBF2F1C5
:10CBE00002FB11337C2B00D9B8B11022B2FBFAF250
:10CBF000012A38BF012201233601B6FBFAF6934021
:10CC0000704A013B11689BB2F6B2B340526881F89A
:10CC10005F30C3F3072382F85F3005AB0693042F20
:10CC20000DF11203079300F0C98700F2B387012FBB
:10CC300000F0E887022F01F00C80002F00F0B7878A
:10CC40002369C3F59673632B00F2AB80C82323617D
:10CC5000A7E00C2D00F001810D2D00F0BC810B2D03
:10CC60007FF459AE0022584B514C1A60A38923B966
:10CC7000002F40F082850123A3810023534A042F13
:10CC80001380534A138000F0A48500F27985012FA8
:10CC9000504A00F0AB85022F00F09685002F00F07F
:10CCA0007B85E2894B4EC2F59672632A9CBFC822EF
:10CCB000E281F28E92B20AB15B421BB2E3B1B1885B
:10CCC00083EAE372A2EBE372194409B213B291FB57
:10CCD000F3F15143738C09B29BB2002B00F08885AD
:10CCE0003229B8BF3221B1F5257FA8BF4FF4257195
:10CCF000002089B2FBF750FF374BFF221F78F38EDD
:10CD000001219BB2002F00F07D85DFF8D0C03448B0
:10CD1000002B18BF6046FCF725FBFF22012131489C
:10CD2000FCF720FB0123B0881A46032180B2FCF7F0
:10CD30007AFC0220FCF74AFCFF2201212948FCF77B
:10CD400011FBF38EFF2201219BB2002F00F05F85C3
:10CD5000234E2248002B18BF3046FCF703FB164B2E
:10CD6000164A1B6812689B1A40F6B832934218D9CB
:10CD700000F00BBD0E4CA389022B39D00ED8A3B9FD
:10CD8000194E337843B139461848FEF75DF900284B
:10CD900000F0648600233370012345E0032B45D067
:10CDA0000025284609B0BDE8F08FA581F9E700BF4E
:10CDB0004824002054210108302E00205C26002049
:10CDC0001CFE0008B821002064240020A8220020B6
:10CDD000AA220020E4280020CC21002032FC0008F8
:10CDE00034FC000829FD0008E0280020BF080108E5
:10CDF0009B4B1B68002B00F03186012B13D1994B04
:10CE0000DB8F9BB2012B0ED839469748FEF71CF9F1
:10CE1000002800F0238603231D20A381FBF7D2FE08
:10CE2000FFF7EAFCBDE70323A381BAE7FDF7CEFADB
:10CE300088B98C4BB3F840309BB2012B0BD83946E4
:10CE40008A48FEF701F9002800F008861E20FBF74B
:10CE5000B9FEFFF7D1FC0423E6E7854BD3F80028A1
:10CE6000844B9A4234D1002383490868441C03F15F
:10CE7000006202F5F83292F80558C55492F8042879
:10CE8000E2540233602BF2D100234968481C03F1BD
:10CE9000006202F5F83292F86548CC5492F86428A2
:10CEA000C2540233602BF2D1FFF7E2FBFDF738FCEE
:10CEB000FEF7C2F8FFF7DCFB6A4B1A8B92B2022A2C
:10CEC00079D100236D4A072513606D4A136068E726
:10CED0006C4A1378AA2BEBD1DFF88881B8F84A3076
:10CEE0009BB2002BE4D001264FF0600B92F801902A
:10CEF000DFF894A1FEF7A0F84FEA89030293FBF74D
:10CF00009FFF01460028D3D116F80A4006EB0A0716
:10CF1000FE2C4ED0FF2C21D064BBFFF7A9FB26448A
:10CF2000B9F1000F02D00298FDF7BCFBB8F84A3007
:10CF30009BB2002BE3D040F2FD339E4201DC002C7B
:10CF4000DDD1B8F84A309BB2062BAFD14FF4C87090
:10CF5000FDF7A8FB0126FEF76FF8D0E70137102395
:10CF600060220097FCF720F960246400FFF780FB43
:10CF70000134D2E70D467B1C64080393A542F4DA22
:10CF8000039B012213F81500013517F815305F28AF
:10CF90008DF81830B0FBFBF394BF002101210BFB8F
:10CFA000130006AB0093C9000823C0B2FCF7FCF8DD
:10CFB000E4E70124B1E71A8B92B2012A07D1334B7F
:10CFC0002E4A1B6813602E4A13600525E9E61B8B69
:10CFD0009BB2032B01D00425E3E60023274A082552
:10CFE0001360274A1360DCE6294B2A22009321466E
:10CFF00010232046FCF7D8F82A23C2E4B38B9BB257
:10D000006BB1BAF1370F0AD94FF47A721F4B1B6814
:10D01000B3FBF2F102FB1133B3F5967F02D301208B
:10D02000FDF754FA002C14BF062349234FF00009E2
:10D03000B0884A4603212B8080B20123A8F80090D3
:10D04000FCF7F1FA4846FCF7C1FA4C450CBF432304
:10D050004B462B800823A8F80030FCF781FEB7E48C
:10D0600034030020E4280020D9080108F40801084E
:10D0700000F0010855AA0DF0B82100205C26002020
:10D080008C26002000F8010801F80108302E00204D
:10D09000081C0108002C48D0A04B2A224946362003
:10D0A00000931023FCF780F89D4B2A2200934946F9
:10D0B00010230C20FCF778F8A5F80090FCF70CFE84
:10D0C000FCF798FF814618B9BAF1370F7FF685ACA7
:10D0D000DFF850A22922DAF80000002C38D0002115
:10D0E000373002F04DFDDAF80400002129223730F4
:10D0F00002F046FD382300212B80A8F80010B9F17A
:10D10000000F3BD1B38B9BB25BB14FF47A72864B6D
:10D110001B68B3FBF2F102FB1133B3F5967FFFF40A
:10D120005CAC0020FDF7D2F957E4804B2A2221465F
:10D13000204600931023FCF737F82A227C4B214627
:10D14000009310461023FCF72FF854232B80B5E7EB
:10D15000214602F015FD29222146DAF8040002F0EA
:10D160000FFD2C80A8F80040B9F1000FCAD0714B18
:10D170002A22009321461023204604E06E4B2A22E7
:10D18000009336201023FCF70FF826E4082F7FF4D5
:10D1900022AF04230A25A36003E6FCF72BFF002837
:10D1A0007FF419AF02230625A360FAE5FCF722FFFE
:10D1B00000287FF410AF0223A36006E7002161611D
:10D1C000738CE289DFF874819BB2002A75D0002B42
:10D1D0006ED0338E9BB21F2BC1BF0922203B03EBC5
:10D1E0008303B3FBF2F1C8F800100020D8F80090D8
:10D1F000FDF75CF9A9EB000909F10A09B9F1140F6F
:10D200006BD8238B63B980224D4B1B689A636422D1
:10D210009A62454B1B6803F24D132361012323835C
:10D220000320FCF709FF23694BB13F4A1268934280
:10D2300005D80022424B1B689A6301229A62338C04
:10D240009BB2002B62D03F4BDFF8FCA093F800B0FC
:10D25000DFF8F890BBF1000F14BF32234FF0FF331B
:10D26000AAF8003000230120A9F80030FDF72EF9BC
:10D27000E189002937D0BBF1000F0CBF32222222F6
:10D280000023AAF800200121FF223148A9F800302C
:10D29000FCF768F8FCF788FDFBF75EFC00285BD024
:10D2A000274B1A680023936301239362A36092E6DD
:10D2B000338E9BB2C8F8003097E763B1B3889BB256
:10D2C0001F2BC1BF0922203B03EB8303B3FBF2F208
:10D2D000C8F8002089E7B388EBE70220FCF7ACFE32
:10D2E000002323839FE7BBF1000F0CBF2F232023D4
:10D2F000AAF8003008230291A9F80030FDF7A4F83D
:10D30000144B0222029953F82000C1E7E08900384B
:10D3100018BF0120FDF7FCF8BEE700BF9F230020E7
:10D32000F3230020B8210020302E0020641F0108C4
:10D33000B81F0108081C010868240020642400208C
:10D34000CC250020CC210020A8220020AA220020E9
:10D3500032FC0008ECFD0008738B9BB263B1A54B57
:10D36000196849B1A44B1A68738B521A4EF66021A2
:10D370009BB24B439A4211D8FBF762FD08280DD0AF
:10D380009E4B93F80090B9F1000F0CD000221A7058
:10D390000123C8F80020A3600D2502E50023C8F88A
:10D3A0000030012382E7A389012B22D1042F0CD165
:10D3B000338E9BB2002B3FF408AEF38C9BB2012B53
:10D3C0007FF403AE0123E381EBE4202F09D139463A
:10D3D0008B48FDF739FE00283FF4F7ADA4F80C9018
:10D3E000DFE4002F3FF4F1AD39468648FDF72CFE0F
:10D3F000D7E4042F12D007D877B1032F3FF4E5AD5F
:10D4000002230B25A360CCE4102FCAD0202F0AD012
:10D41000082F7FF4DAADC4E7E781C2E4338E9BB214
:10D42000002BCFD1D1E5F38C9BB2002B3FF4CDADD7
:10D4300039467548FDF708FE00283FF4C6ADABE459
:10D44000FDF734F81FFA80F9FFF72FBBDFF8A8A12A
:10D450002269DAF80030A3EB02084FF47A72B8FBC5
:10D46000F2F8E3891FFA88F843451DD8218B8945D6
:10D470001AD1DAF80000A3892061B6F8520001330E
:10D480009BB280B28342A381A4F81A9040F2CE806E
:10D49000B6F86CB04FF000081FFA8BFBB2FBFBFB39
:10D4A000A4F80E80A4F81880B6F85230A2899BB276
:10D4B0009A4214D90020FCF7F9FF36280FDC01202E
:10D4C000FCF7BAFD636953B98022504B1B689A631D
:10D4D00064229A62DAF8003003F24D136361238B01
:10D4E000678BBB4284BFDAF800302268308C84BF7F
:10D4F0009B1AB3FBFBF380B28ABFFF180027BFB2B1
:10D50000002800F02081424B4FF0000B1B78414A6D
:10D51000002B029314BF3023002313803E4B5A4646
:10D5200003214846A3F800B00123FCF77CF8FF2252
:10D5300059463A48FBF716FF5A460321012338465D
:10D54000FCF771F8718CFF2289B2002900F0AC80E1
:10D5500059463348FBF706FFA08990B1B6F8523020
:10D560009BB298420DD8029B2A4A002B14BF242359
:10D57000372313800022284B1A8001231946FCF719
:10D5800052F8029B234A002B0CBF00232A2313804E
:10D590000823214AA1891380002940F08780FF22B7
:10D5A0002048FBF7DFFEFCF7FFFB738CDFF8788089
:10D5B0009BB24BB11F2FC1BF0923203F07EB870749
:10D5C000B7FBF3F7D8BF0027C8F80070FBF7C4FA21
:10D5D00040B96369002B00F0B980DAF8002093426B
:10D5E00000F2B4800022094B1B689A6301229A6200
:10D5F000F1E400BF8C260020302E0020742500208E
:10D60000130901081D0901080B090108CC25002098
:10D61000CC210020A8220020AA22002036FC0008ED
:10D6200022FC0008CA09010864240020032B2FD023
:10D6300017D8012B1FD0022B24D04FF47A73B4F8E3
:10D640000EB0228B03FB0BFB914235BF521A8B1A93
:10D65000BBFBF2FBBBFBF3FB4FF000081FFA8BFB9D
:10D6600022E7042B1AD0052BE7D1B6F86A30E38104
:10D67000B6F8683004E0B6F85A30E381B6F85830AE
:10D680002383DAE7B6F85E30E381B6F85C30F7E77B
:10D69000B6F86230E381B6F86030F1E7B6F866308C
:10D6A000E381B6F86430EBE7B44853E7B6F852309C
:10D6B0009BB2994203D9FF220021B14871E74FF094
:10D6C0003C0B0123B8FBFBF9194600221FFA89F035
:10D6D000FBF7A9FFFF220021AA48FBF743FE002326
:10D6E0000BFB19801A46022180B2FBF79CFFA6486B
:10D6F000FF220021FBF736FEE089431C434508DA90
:10D700004FF47A72DAF80030B3FBF2F3D9073FF541
:10D710004AAF4FF03C080123B0FBF8F01946002255
:10D72000FBF781FFFF2200219648FBF71BFEE089F3
:10D730000221B0FBF8F308FB1300002380B21A4665
:10D74000FBF771FF2FE7FCF7E3FE2EE78F4B1A780C
:10D7500022B10022C8F800201A701DE6A28922B961
:10D760000220FCF769FCFFF71CBBB6F852309BB2F5
:10D770009A428CBF04200320F3E71F46FFF77DBACF
:10D78000082F0DD0102F7FF48CAAFFF735F8012356
:10D790006568A360FFF705BB3B46E781FFF781BAE9
:10D7A0007B48E189226906688A1A3244B2F5967F7D
:10D7B0007FF677AA774B1B8F5B42026821311BB241
:10D7C0002261E181FFF76DBA538F5B421BB2FFF715
:10D7D00068BA6F48E189226906688A1A3244B2F54C
:10D7E000967F7FF65EAA6B4B1B8FE6E7538FEDE7C4
:10D7F0000A29B8BF0A21B1F5AF7FA8BF4FF4AF71B6
:10D80000FFF776BADFF890C16448FFF781BA634E3C
:10D810006148FFF79FBA00244FF00809DFF88081C4
:10D82000604EFF2221466048A8F800403480FBF794
:10D8300099FDA8F80040DFF874815D4BB8F80C0042
:10D84000FF22214653F82000A6F80090FBF78AFD3E
:10D85000B8F80C604E4500F088801ED8042E65D0C4
:10D860000DD8022E52D0032E5AD0012E30D0022FC6
:10D8700040F0DF800323C8F80830FFF7ACBB062E6A
:10D8800057D0072E6ED0052EF1D10020FCF70EFEEA
:10D8900001230022062180B2A9E00C2E00F0BF80F7
:10D8A00009D80A2E00F094800B2E00F0A380092ED8
:10D8B000DDD1404B5AE00E2E00F0B4800F2E00F068
:10D8C000B6800D2ED3D13C4B1868FAF7DBFF51E040
:10D8D0001C243A4BD3F8EC97D3F8E86729FA04F004
:10D8E00000F00F0000210230043CFBF79DFC221DDC
:10D8F000F4D11C2426FA04F000F00F0000210230BD
:10D90000043CFBF791FC231DF4D1B0E7FF22214634
:10D910002B4B18682B4B53F82000FBF723FDA6E791
:10D92000FCF792FDFF222146274BF4E7FCF718FA9B
:10D930009DE7FCF795FDB0FBF5F00123224631464B
:10D9400080B2FBF770FEFF2221462048FBF70AFD5C
:10D95000FCF786FDB0FBF5F303FB1500012322461F
:10D96000194698E7FCF722FE92E7094B18686423F2
:10D97000B0FBF3F00123002208218CE748FC0008EB
:10D98000D309010838FC000836FC00087425002083
:10D99000302E0020E428002034FC000832FC00086F
:10D9A000A8220020AA2200203AFC000848240020D7
:10D9B000A8FD00088C2600209C0B002000F0FF1F13
:10D9C0003403002084FD0008ECFD00082CFC000856
:10D9D0000621012308462246FBF725FEFF222146A9
:10D9E000AE48FBF7BFFC0123224619462046FBF751
:10D9F0001AFE3CE7AA4B186A48F2E803C0F30F107E
:10DA000058436423C00B5843A823B0FBF3F0A54B45
:10DA10005B8EA54B18600123224649463BE7A14B8C
:10DA2000588EF8E7A14B1868FAF72CFFF3E7A04BE4
:10DA3000F9E7012F7FF4B5A9B8F80C30013303F0F2
:10DA40000F03A8F80C30FFF7ACB90020FCF76CFA14
:10DA5000984B1B782BB9FCF7CDFA68B10225FFF77C
:10DA6000A0B90021944BFF221980944B944819804F
:10DA7000FBF778FCFFF795B9FCF718FD0446FCF7B7
:10DA8000EFFC0A23B0FBF3F080B2241A002CB8BFDD
:10DA90006442092CE2DC8B4DAB890F2B33D88A4CC6
:10DAA0006A6923689B1A642B0AD90120FCF7B4F831
:10DAB0002B6903442B61AB890133AB8123686B6114
:10DAC00000247E4E7C4FFF2221467D4834803C80DE
:10DAD000FBF748FC0823FF222146704833803C8036
